{"abi":[{"type":"function","name":"bindCalled","inputs":[],"outputs":[{"name":"","type":"bool","internalType":"bool"}],"stateMutability":"view"},{"type":"function","name":"bindCompliance","inputs":[{"name":"_compliance","type":"address","internalType":"address"}],"outputs":[],"stateMutability":"nonpayable"},{"type":"function","name":"burnActionCalled","inputs":[],"outputs":[{"name":"","type":"bool","internalType":"bool"}],"stateMutability":"view"},{"type":"function","name":"canBindResult","inputs":[],"outputs":[{"name":"","type":"bool","internalType":"bool"}],"stateMutability":"view"},{"type":"function","name":"canComplianceBind","inputs":[{"name":"","type":"address","internalType":"address"}],"outputs":[{"name":"","type":"bool","internalType":"bool"}],"stateMutability":"view"},{"type":"function","name":"checkResult","inputs":[],"outputs":[{"name":"","type":"bool","internalType":"bool"}],"stateMutability":"view"},{"type":"function","name":"isComplianceBound","inputs":[{"name":"","type":"address","internalType":"address"}],"outputs":[{"name":"","type":"bool","internalType":"bool"}],"stateMutability":"pure"},{"type":"function","name":"isPlugAndPlay","inputs":[],"outputs":[{"name":"","type":"bool","internalType":"bool"}],"stateMutability":"pure"},{"type":"function","name":"lastCompliance","inputs":[],"outputs":[{"name":"","type":"address","internalType":"address"}],"stateMutability":"view"},{"type":"function","name":"mintActionCalled","inputs":[],"outputs":[{"name":"","type":"bool","internalType":"bool"}],"stateMutability":"view"},{"type":"function","name":"moduleBurnAction","inputs":[{"name":"","type":"address","internalType":"address"},{"name":"","type":"uint256","internalType":"uint256"}],"outputs":[],"stateMutability":"nonpayable"},{"type":"function","name":"moduleCheck","inputs":[{"name":"","type":"address","internalType":"address"},{"name":"","type":"address","internalType":"address"},{"name":"","type":"uint256","internalType":"uint256"},{"name":"","type":"address","internalType":"address"}],"outputs":[{"name":"","type":"bool","internalType":"bool"}],"stateMutability":"view"},{"type":"function","name":"moduleMintAction","inputs":[{"name":"","type":"address","internalType":"address"},{"name":"","type":"uint256","internalType":"uint256"}],"outputs":[],"stateMutability":"nonpayable"},{"type":"function","name":"moduleTransferAction","inputs":[{"name":"","type":"address","internalType":"address"},{"name":"","type":"address","internalType":"address"},{"name":"","type":"uint256","internalType":"uint256"}],"outputs":[],"stateMutability":"nonpayable"},{"type":"function","name":"name","inputs":[],"outputs":[{"name":"","type":"string","internalType":"string"}],"stateMutability":"pure"},{"type":"function","name":"plugAndPlay","inputs":[],"outputs":[{"name":"","type":"bool","internalType":"bool"}],"stateMutability":"view"},{"type":"function","name":"setCanBindResult","inputs":[{"name":"_value","type":"bool","internalType":"bool"}],"outputs":[],"stateMutability":"nonpayable"},{"type":"function","name":"setCheckResult","inputs":[{"name":"_result","type":"bool","internalType":"bool"}],"outputs":[],"stateMutability":"nonpayable"},{"type":"function","name":"transferActionCalled","inputs":[],"outputs":[{"name":"","type":"bool","internalType":"bool"}],"stateMutability":"view"},{"type":"function","name":"unbindCalled","inputs":[],"outputs":[{"name":"","type":"bool","internalType":"bool"}],"stateMutability":"view"},{"type":"function","name":"unbindCompliance","inputs":[{"name":"_compliance","type":"address","internalType":"address"}],"outputs":[],"stateMutability":"nonpayable"},{"type":"event","name":"ComplianceBound","inputs":[{"name":"_compliance","type":"address","indexed":true,"internalType":"address"}],"anonymous":false},{"type":"event","name":"ComplianceUnbound","inputs":[{"name":"_compliance","type":"address","indexed":true,"internalType":"address"}],"anonymous":false}],"bytecode":{"object":"0x60806040526001600060196101000a81548160ff02191690831515021790555060016000601a6101000a81548160ff02191690831515021790555060016000601b6101000a81548160ff02191690831515021790555034801561006157600080fd5b50610a52806100716000396000f3fe608060405234801561001057600080fd5b50600436106101375760003560e01c80635584be6e116100b8578063cbc5465e1161007c578063cbc5465e1461032a578063d3453eb414610348578063e0f2d69614610366578063e3be95ce14610382578063e6f5e807146103a0578063f104a8c9146103be57610137565b80635584be6e14610282578063a21d942f146102a0578063acdfa0b0146102be578063b6ed6da4146102dc578063bcc21053146102fa57610137565b80633c320730116100ff5780633c320730146101de5780633d88505e146101fc5780634a932544146102185780634cf4d295146102345780635013afd71461026457610137565b8063013b7ce41461013c5780630694a5fb1461016c57806306fdde03146101885780632cb7e1ec146101a6578063372491a2146101c2575b600080fd5b6101566004803603810190610151919061078a565b6103da565b604051610163919061080c565b60405180910390f35b61018660048036038101906101819190610827565b6103f5565b005b610190610497565b60405161019d91906108e4565b60405180910390f35b6101c060048036038101906101bb9190610906565b6104d4565b005b6101dc60048036038101906101d79190610959565b6104f4565b005b6101e6610513565b6040516101f3919061080c565b60405180910390f35b610216600480360381019061021191906109c5565b610526565b005b610232600480360381019061022d9190610827565b610543565b005b61024e60048036038101906102499190610827565b6105e4565b60405161025b919061080c565b60405180910390f35b61026c6105eb565b604051610279919061080c565b60405180910390f35b61028a6105fe565b604051610297919061080c565b60405180910390f35b6102a8610611565b6040516102b5919061080c565b60405180910390f35b6102c6610624565b6040516102d3919061080c565b60405180910390f35b6102e4610637565b6040516102f1919061080c565b60405180910390f35b610314600480360381019061030f9190610827565b610648565b604051610321919061080c565b60405180910390f35b610332610660565b60405161033f9190610a01565b60405180910390f35b610350610686565b60405161035d919061080c565b60405180910390f35b610380600480360381019061037b91906109c5565b610699565b005b61038a6106b6565b604051610397919061080c565b60405180910390f35b6103a86106c9565b6040516103b5919061080c565b60405180910390f35b6103d860048036038101906103d39190610959565b6106d2565b005b60008060199054906101000a900460ff169050949350505050565b6001600060016101000a81548160ff02191690831515021790555080600060026101000a81548173ffffffffffffffffffffffffffffffffffffffff021916908373ffffffffffffffffffffffffffffffffffffffff1602179055508073ffffffffffffffffffffffffffffffffffffffff167f408b49d9be1c914c52a0227e18a077e5a892dddf32a26cfa94a5d9708fad771860405160405180910390a250565b60606040518060400160405280600a81526020017f4d6f636b4d6f64756c6500000000000000000000000000000000000000000000815250905090565b6001600060166101000a81548160ff021916908315150217905550505050565b6001600060186101000a81548160ff0219169083151502179055505050565b600060189054906101000a900460ff1681565b806000601b6101000a81548160ff02191690831515021790555050565b60016000806101000a81548160ff02191690831515021790555080600060026101000a81548173ffffffffffffffffffffffffffffffffffffffff021916908373ffffffffffffffffffffffffffffffffffffffff1602179055508073ffffffffffffffffffffffffffffffffffffffff167f1f7b76c58fb697eb53c6c7c1becb96911516a136e24d7ced386b2355358b75a360405160405180910390a250565b6000919050565b6000601a9054906101000a900460ff1681565b600060179054906101000a900460ff1681565b600060199054906101000a900460ff1681565b600060169054906101000a900460ff1681565b60008054906101000a900460ff1681565b600080601b9054906101000a900460ff169050919050565b600060029054906101000a900473ffffffffffffffffffffffffffffffffffffffff1681565b600060019054906101000a900460ff1681565b80600060196101000a81548160ff02191690831515021790555050565b6000601b9054906101000a900460ff1681565b60006001905090565b6001600060176101000a81548160ff0219169083151502179055505050565b600080fd5b600073ffffffffffffffffffffffffffffffffffffffff82169050919050565b6000610721826106f6565b9050919050565b61073181610716565b811461073c57600080fd5b50565b60008135905061074e81610728565b92915050565b6000819050919050565b61076781610754565b811461077257600080fd5b50565b6000813590506107848161075e565b92915050565b600080600080608085870312156107a4576107a36106f1565b5b60006107b28782880161073f565b94505060206107c38782880161073f565b93505060406107d487828801610775565b92505060606107e58782880161073f565b91505092959194509250565b60008115159050919050565b610806816107f1565b82525050565b600060208201905061082160008301846107fd565b92915050565b60006020828403121561083d5761083c6106f1565b5b600061084b8482850161073f565b91505092915050565b600081519050919050565b600082825260208201905092915050565b60005b8381101561088e578082015181840152602081019050610873565b60008484015250505050565b6000601f19601f8301169050919050565b60006108b682610854565b6108c0818561085f565b93506108d0818560208601610870565b6108d98161089a565b840191505092915050565b600060208201905081810360008301526108fe81846108ab565b905092915050565b60008060006060848603121561091f5761091e6106f1565b5b600061092d8682870161073f565b935050602061093e8682870161073f565b925050604061094f86828701610775565b9150509250925092565b600080604083850312156109705761096f6106f1565b5b600061097e8582860161073f565b925050602061098f85828601610775565b9150509250929050565b6109a2816107f1565b81146109ad57600080fd5b50565b6000813590506109bf81610999565b92915050565b6000602082840312156109db576109da6106f1565b5b60006109e9848285016109b0565b91505092915050565b6109fb81610716565b82525050565b6000602082019050610a1660008301846109f2565b9291505056fea2646970667358221220610ec92afc88fa6e88ca28247a8f6ebca64dcf4a75224bedb3eac4cc28f0cd6a64736f6c63430008110033","linkReferences":{}},"methodIdentifiers":{"bindCalled()":"b6ed6da4","bindCompliance(address)":"4a932544","burnActionCalled()":"3c320730","canBindResult()":"e3be95ce","canComplianceBind(address)":"bcc21053","checkResult()":"a21d942f","isComplianceBound(address)":"4cf4d295","isPlugAndPlay()":"e6f5e807","lastCompliance()":"cbc5465e","mintActionCalled()":"5584be6e","moduleBurnAction(address,uint256)":"372491a2","moduleCheck(address,address,uint256,address)":"013b7ce4","moduleMintAction(address,uint256)":"f104a8c9","moduleTransferAction(address,address,uint256)":"2cb7e1ec","name()":"06fdde03","plugAndPlay()":"5013afd7","setCanBindResult(bool)":"3d88505e","setCheckResult(bool)":"e0f2d696","transferActionCalled()":"acdfa0b0","unbindCalled()":"d3453eb4","unbindCompliance(address)":"0694a5fb"},"id":138}